{
	"data": {
		"bytecode": {
			"linkReferences": {},
			"object": "60806040525f5f5f6101000a81548160ff0219169083151502179055503480156026575f5ffd5b5060f7806100335f395ff3fe6080604052348015600e575f5ffd5b50600436106030575f3560e01c80631a3be88114603457806340a3d24614604e575b5f5ffd5b603a6056565b6040516045919060aa565b60405180910390f35b6054606a565b005b5f5f5f9054906101000a900460ff16905090565b5f5f9054906101000a900460ff16155f5f6101000a81548160ff021916908315150217905550565b5f8115159050919050565b60a4816092565b82525050565b5f60208201905060bb5f830184609d565b9291505056fea26469706673582212204560a3dd9558c1ff035a68e0c50f9257a3cb91e040c2bbd8915584bcc3d2eca464736f6c634300081d0033",
			"opcodes": "PUSH1 0x80 PUSH1 0x40 MSTORE PUSH0 PUSH0 PUSH0 PUSH2 0x100 EXP DUP2 SLOAD DUP2 PUSH1 0xFF MUL NOT AND SWAP1 DUP4 ISZERO ISZERO MUL OR SWAP1 SSTORE POP CALLVALUE DUP1 ISZERO PUSH1 0x26 JUMPI PUSH0 PUSH0 REVERT JUMPDEST POP PUSH1 0xF7 DUP1 PUSH2 0x33 PUSH0 CODECOPY PUSH0 RETURN INVALID PUSH1 0x80 PUSH1 0x40 MSTORE CALLVALUE DUP1 ISZERO PUSH1 0xE JUMPI PUSH0 PUSH0 REVERT JUMPDEST POP PUSH1 0x4 CALLDATASIZE LT PUSH1 0x30 JUMPI PUSH0 CALLDATALOAD PUSH1 0xE0 SHR DUP1 PUSH4 0x1A3BE881 EQ PUSH1 0x34 JUMPI DUP1 PUSH4 0x40A3D246 EQ PUSH1 0x4E JUMPI JUMPDEST PUSH0 PUSH0 REVERT JUMPDEST PUSH1 0x3A PUSH1 0x56 JUMP JUMPDEST PUSH1 0x40 MLOAD PUSH1 0x45 SWAP2 SWAP1 PUSH1 0xAA JUMP JUMPDEST PUSH1 0x40 MLOAD DUP1 SWAP2 SUB SWAP1 RETURN JUMPDEST PUSH1 0x54 PUSH1 0x6A JUMP JUMPDEST STOP JUMPDEST PUSH0 PUSH0 PUSH0 SWAP1 SLOAD SWAP1 PUSH2 0x100 EXP SWAP1 DIV PUSH1 0xFF AND SWAP1 POP SWAP1 JUMP JUMPDEST PUSH0 PUSH0 SWAP1 SLOAD SWAP1 PUSH2 0x100 EXP SWAP1 DIV PUSH1 0xFF AND ISZERO PUSH0 PUSH0 PUSH2 0x100 EXP DUP2 SLOAD DUP2 PUSH1 0xFF MUL NOT AND SWAP1 DUP4 ISZERO ISZERO MUL OR SWAP1 SSTORE POP JUMP JUMPDEST PUSH0 DUP2 ISZERO ISZERO SWAP1 POP SWAP2 SWAP1 POP JUMP JUMPDEST PUSH1 0xA4 DUP2 PUSH1 0x92 JUMP JUMPDEST DUP3 MSTORE POP POP JUMP JUMPDEST PUSH0 PUSH1 0x20 DUP3 ADD SWAP1 POP PUSH1 0xBB PUSH0 DUP4 ADD DUP5 PUSH1 0x9D JUMP JUMPDEST SWAP3 SWAP2 POP POP JUMP INVALID LOG2 PUSH5 0x6970667358 0x22 SLT KECCAK256 GASLIMIT PUSH1 0xA3 0xDD SWAP6 PC 0xC1 SELFDESTRUCT SUB GAS PUSH9 0xE0C50F9257A3CB91E0 BLOCKHASH 0xC2 0xBB 0xD8 SWAP2 SSTORE DUP5 0xBC 0xC3 0xD2 EOFCREATE 0xA4 PUSH5 0x736F6C6343 STOP ADDMOD SAR STOP CALLER "
		},
		"gasEstimates": {
			"creation": {
				"codeDepositCost": "49400",
				"executionCost": "24361",
				"totalCost": "73761"
			},
			"external": {
				"isFlagTrue()": "2450",
				"toggle()": "26545"
			}
		},
		"methodIdentifiers": {
			"isFlagTrue()": "1a3be881",
			"toggle()": "40a3d246"
		}
	},
	"abi": [
		{
			"inputs": [],
			"name": "isFlagTrue",
			"outputs": [
				{
					"internalType": "bool",
					"name": "",
					"type": "bool"
				}
			],
			"stateMutability": "view",
			"type": "function"
		},
		{
			"inputs": [],
			"name": "toggle",
			"outputs": [],
			"stateMutability": "nonpayable",
			"type": "function"
		}
	]
}